{
  "_format": "hh-sol-artifact-1",
  "contractName": "Counter",
  "sourceName": "contracts/Counter.sol",
  "abi": [
    {
      "inputs": [],
      "stateMutability": "nonpayable",
      "type": "constructor"
    },
    {
      "inputs": [],
      "name": "addCounter",
      "outputs": [],
      "stateMutability": "nonpayable",
      "type": "function"
    },
    {
      "inputs": [],
      "name": "getCounter",
      "outputs": [
        {
          "internalType": "uint256",
          "name": "",
          "type": "uint256"
        }
      ],
      "stateMutability": "view",
      "type": "function"
    }
  ],
  "bytecode": "0x608060405234801561001057600080fd5b5060008081905550610166806100276000396000f3fe608060405234801561001057600080fd5b50600436106100365760003560e01c806308615e551461003b5780638ada066e14610045575b600080fd5b610043610063565b005b61004d61007c565b60405161005a919061009e565b60405180910390f35b600080815480929190610075906100e8565b9190505550565b60008054905090565b6000819050919050565b61009881610085565b82525050565b60006020820190506100b3600083018461008f565b92915050565b7f4e487b7100000000000000000000000000000000000000000000000000000000600052601160045260246000fd5b60006100f382610085565b91507fffffffffffffffffffffffffffffffffffffffffffffffffffffffffffffffff8203610125576101246100b9565b5b60018201905091905056fea26469706673582212201c5596cf0390e427d640ac2cb5c6a56ac5b89ea2a50150a31bb39d32ec9c4d5f64736f6c63430008110033",
  "linkReferences": {},
  "deployedLinkReferences": {}
}